:020000040000FA
:04000000C6EF09F04E
:08000800056ED8CF06F0E0CF31
:1000100007F00001E9CF0DF0EACF08F0E1CF09F0D9
:10002000E2CF0AF0D9CF0BF0DACF0CF0F3CF14F017
:10003000F4CF15F0FACF16F000C00FF001C010F0A9
:1000400002C011F003C012F004C013F0A0AA2CEFFC
:1000500000F0A1BA71EF08F00FC000F010C001F07D
:1000600011C002F012C003F013C004F00E8E0DC0D8
:10007000E9FF08C0EAFF09C0E1FF0AC0E2FF0BC0C8
:10008000D9FF0CC0DAFF14C0F3FF15C0F4FF16C08F
:10009000FAFF055007C0E0FF06C0D8FF1000F2CFFE
:1000A0000EF0F29EF76AB80FF66E000EF722090006
:1000B000F5500EBEF28E1200280C0106F76ACC0F26
:1000C000F66E000EF7220900F5501200040301003D
:1000D000000000000000000000000000F76AEC0FC4
:1000E000F66E000EF7220900F55012000400010020
:1000F000000000000000000000000000F76A0C0F84
:10010000F66E010EF7220900F550120040000800BB
:10011000400000000000000000000000000000009F
:100120000000000000000000000000000DAE03D041
:10013000F2CF0EF0F29EF76A4E0FF66E010EF72226
:100140000900F5500DAE02D00EBEF28E1200400036
:10015000000040000000000000000000000000005F
:100160000000000000000000000000000000F76A2E
:100170007E0FF66E010EF7220900F55012000902FB
:100180004300020100C03209040000010202010024
:1001900005240010010424020205240600010524A0
:1001A000010001070581030800FA09040100020AA1
:1001B000000000070502024000FA07058202400025
:1001C000FA00F76AD20FF66E010EF7220900F55019
:1001D00012000200F76AE40FF66E010EF722090022
:1001E000F5501200120110010200004061043300BA
:1001F000000101020001F76A060FF66E020EF722F7
:100200000900F550120004030904080343004300E9
:10021000530034035500530042005000490043008E
:100220002000620079003A00200047007500650058
:100230006C006200650072007400200043006F00D3
:100240006F006C002000F2CF0EF0F29EF76A600F94
:10025000F66E020EF7220900F5500EBEF28E120065
:10026000FFFFFFFFFFFFFFFBFBFBFBFBFFFBF5F5CA
:10027000F5FFFFFFFFF5F5E0F5E0F5F5FBF0EBF13D
:10028000FAE1FBE3EAE5FBF4EAF8F7EBEBF7EAED7A
:10029000F2F9F9FDFBFFFFFFFDFBF7F7F7FBFDF7B9
:1002A000FBFDFDFDFBF7FBEAF1FBF1EAFBFFFBFBCE
:1002B000E0FBFBFFFFFFFFF3F3FBF7FFFFFFF1FFA7
:1002C000FFFFFFFFFFFFFFF3F3FFFEFDFBF7EFFF75
:1002D000F1EEECEAE6EEF1FBF3FBFBFBFBF1F1EEFA
:1002E000FEF1EFEFE0F1EEFEF9FEEEF1FDF9F5EDD6
:1002F000E0FDFDE0EFE1FEFEFEE1F9F7EFE1EEEEFD
:10030000F1E0FEFDFBF7F7F7F1EEEEF1EEEEF1F1C5
:10031000EEEEF0FEFDF3FFF3F3FFF3F3FFF3FBF379
:10032000F3FFF3F3FDFBF7EFF7FBFDFFFFF1FFF149
:10033000FFFFF7FBFDFEFDFBF7F1EEFEFDFBFFFB14
:10034000F2CF0EF0F29EF76A5A0FF66E030EF72206
:100350000900F5500EBEF28E1200F1EEFEF2EAEA4E
:10036000F1FBF5EEEEE0EEEEE1F6F6F1F6F6E1F198
:10037000EEEFEFEFEEF1E1F6F6F6F6F6E1E0EFEF95
:10038000E3EFEFE0E0EFEFE3EFEFEFF1EEEFE8EEBA
:10039000EEF1EEEEEEE0EEEEEEF1FBFBFBFBFBF141
:1003A000F8FDFDFDFDFDF3EEEDEBE7EBEDEEEFEF20
:1003B000EFEFEFEFE0EEE4EAEAEEEEEEEEE6EAEC87
:1003C000EEEEEEF1EEEEEEEEEEF1E1EEEEE1EFEF5F
:1003D000EFF1EEEEEEEAEDF2E1EEEEE1EBEDEEF155
:1003E000EEEFF1FEEEF1E0FBFBFBFBFBFBEEEEEED6
:1003F000EEEEEEF1EEEEEEF5F5FBFBEEEEEEEAEAFA
:10040000E4EEEEEEF5FBF5EEEEEEEEF5FBFBFBFBC0
:10041000E0FEFDFBF7EFE0F1F7F7F7F7F7F1FFEF9D
:10042000F7FBFDFEFFF1FDFDFDFDFDF1FBF5EEFF30
:10043000FFFFFFFFFFFFFFFFFFE0F2CF0EF0F29E96
:10044000F76A540FF66E040EF7220900F5500EBE3F
:10045000F28E1200F3F3F7FBFFFFFFFFFFF1FEF058
:10046000EEF1EFEFE9E6EEE6E9FFFFF8F7F7F7F870
:10047000FEFEF2ECEEECF2FFFFF1EEE0EFF1F9F64A
:10048000F7E1F7F7F7FFFFF0EEF0FEF1EFEFE9E647
:10049000EEEEEEFBFFF3FBFBFBF1FDFFF9FDFDFDD7
:1004A000F3F7F7F6F5F3F5F6F3FBFBFBFBFBF1FFD8
:1004B000FFE5EAEAEAEAFFFFE9E6EEEEEEFFFFF12A
:1004C000EEEEEEF1FFFFE1EEE1EFEFFFFFF0EEF019
:1004D000FEFEFFFFE9E6EFEFEFFFFFF0EFF1FEE1D9
:1004E000FBFBF0FBFBFBFCFFFFEEEEEEECF2FFFF95
:1004F000EEEEEEF5FBFFFFEEEEEAEAF4FFFFEEF5BF
:10050000FBF5EEFFFFEEF5FBFBF3FFFFE0FDFBF776
:10051000E0F9F7F7E7F7F7F9FBFBFBFFFBFBFBF372
:10052000FDFDFCFDFDF3F5EAFFFFFFFFFF0000000E
:1005300000000000F2CF0EF0F29EF76A4E0FF66E4A
:10054000050EF7220900F5500EBEF28E12000A00C9
:100550006D92699468947CEF08F06A6A689285EFFE
:1005600008F0306A2F6A250E2E6E800E2D6E316ACD
:10057000326A080E336E826B1A94356A346A7E6B67
:100580007F911A82000CBB6BBB5101080AE3036A1E
:10059000BB512B0FE96E000E0320EA6EEF6ABB2BF6
:1005A000F3D7DFDF1E6A010E1F6E1D6A000C010EFD
:1005B000CF6FCF510F080EE3700ECF25016E0F0ED7
:1005C000036ED8B0032A01C0E9FF03C0EAFFEF6A57
:1005D000CF2BEFD7226A216A000C400E0401016F75
:1005E000050E036F026B880E006F046B050E076F1C
:1005F000400E066F0001000C6A6A686A9F0E6B6EFF
:10060000390E696E6E6ABFDFD2DF160E706E68A695
:1006100002D06896FCD76D98E0DF030E236E8BEF57
:1006200008F0698468986D8291EF08F0689C97EFF4
:1006300008F070A002D0D1DF7090689A9DEF08F0AA
:10064000CAC024F0000CFF0E246E000CC86B2A52A6
:1006500035E0C8513F0832E3205005E0020A0DE0C2
:10066000010A15E01ED0036A2950F2CFCAF0F29EAB
:100670007EDDCABFF28EC96F14D0036A2950F2CF53
:10068000CAF0F29EB8DDCABFF28EC96F0AD0036A03
:100690002950F2CFCAF0F29E9DDDCABFF28EC96F1B
:1006A00000D0292A2A06C851C82B036A400FE96ED8
:1006B000050E0320EA6EC9C0EFFFC9D72A5204E134
:1006C000C851400801E01D6AC8C0CAF0B9DF000C7B
:1006D000296A206A05010351010A000105E0030AA5
:1006E00008E0010A09E01FD0120E2A6E030E206EE8
:1006F0001CD0430E2A6E19D0020E206E036A05012B
:100700000251250FE96E000E0320EA6EEFCF29F0AB
:10071000036A2950F2CFC7F0F29E00016CDDC7BF1B
:10072000F28E2A6E02D08FDF0CD00501075305E14F
:100730002A50065D02E206C52AF0010E1D6E000178
:1007400085DFBBEF04F0C75304E1040E236E2FDFF7
:10075000C1D0050E236ECA6F800EC96F010EC86F1F
:10076000C8510F08D8A0B6D0CB6B036AC851F2CFDE
:10077000CFF0F29EB3DCCFBFF28E000A51E0040E40
:10078000CB6FD890C835036AF2CFCFF0F29ECEDCA3
:100790000900F5CF03F0CFBFF28ECC6F03C0CDF0D0
:1007A000C851080DF350010F016E040E036ED8B04E
:1007B000032A01C0E9FF03C0EAFFCCC0EFFFC85124
:1007C000080DF350020F016E040E036ED8B0032A19
:1007D00001C0E9FF03C0EAFFCAC0ECFFED52C9C087
:1007E000EFFFD890C835036AF2CFCFF0F29E9EDCBF
:1007F0000900F5CF03F0CFBFF28EC9270350CA23FB
:10080000880ECE6FCDB1CE81CDB3CE83C851080D49
:10081000F3CF01F0040E01C0E9FFEA6ECEC0EFFF96
:10082000036AC851F2CFCFF0F29E48DCCFBFF28E00
:10083000000A31E0CB83C851080DF350060F016E5A
:10084000040E036ED8B0032A01C0E9FF03C0EAFF1B
:10085000CAC0ECFFED52C9C0EFFFD890C835036A9B
:10086000F2CFCFF0F29E4ADC0900F5CF03F0CFBF04
:10087000F28EC9270350CA23C851080DF350040F44
:10088000016E040E036ED8B0032A01C0E9FF03C055
:10089000EAFF400EEF6ECB51060802E10E0ECB6F61
:1008A000036AC851F2CFCFF0F29E08DCCFBFF28EC0
:1008B000020801E0CB89700EC825016E0F0E036E91
:1008C000D8B0032A01C0E9FF03C0EAFFCBC0EFFFA5
:1008D000C82B46D7B5EF04F00501015100010DE02A
:1008E000010A14E0020A1EE0060A27E0030A2CE0CF
:1008F0000E0A2BE0010A2FE03CD01FC040F5050195
:10090000416B020E0001CA6F9BDE35D00501022D3E
:1009100006D0010E1F160001CA6B92DE02D0000144
:1009200092DE29D00501022D05D01F820001CA6B7D
:1009300087DE02D0000187DE1ED0020E1D6E02C5CA
:1009400028F0CA6B7DDE17D0C3D61EC040F5010E5D
:10095000CA6F76DE10D005010251010808E302C516
:100960001EF002C5C7F00001EED6CA6B69DE0001B9
:1009700002D069DE00D035EF06F01EC0C7F00501D9
:100980000151000105E00A0A0BE0010A2BE03CD00E
:100990000501406B416B020E0001CA6F51DE36D07B
:1009A000C7531EE0010EC75D036AF2CFC9F0F29E85
:1009B00008DCC9BFF28E016E0501045DD8A002D02B
:1009C00000010ED0036A04512B0FE96E000E0320C4
:1009D000EA6EEFCF40F5010E0001CA6F31DE01D0A3
:1009E00032DE14D0C7530EE0036A050104512B0F09
:1009F000E96E000E0320EA6E02C5EFFF0001CA6B2C
:100A00001FDE01D020DE02D01EDE00D035EF06F062
:100A1000C891C7BFC881C79FC8A111D0036AC75179
:100A2000F2CFC9F0F29E5EEC00F0C9BFF28E000A70
:100A300002E1000E01D0010E016E11D010D0036A48
:100A4000C751F2CFC9F0F29E6EEC00F0C9BFF28E32
:100A5000000A02E1000E01D0010E016E00D0A1EFEC
:100A600005F0C891C7BFC881C79FC8A110D0C751A2
:100A7000080DF350040F016E040E036ED8B0032A64
:100A800001C0E9FF03C0EAFF880EEF6E09D0C7512D
:100A9000080DF3CF01F0040E01C0E9FFEA6EEF6A22
:100AA000B0EF05F0C891C7BFC881C79FC8A110D0DB
:100AB000C751080DF350040F016E040E036ED8B039
:100AC000032A01C0E9FF03C0EAFF840EEF6E0AD0DB
:100AD000C751080DF3CF01F0040E01C0E9FFEA6E23
:100AE000840EEF6EB6EF05F0C891C7BFC881C79FEF
:100AF000C8A110D0C751080DF350040F016E040EA9
:100B0000036ED8B0032A01C0E9FF03C0EAFFEFCFAC
:100B1000C9F00AD0C751080DF3CF01F0040E01C08F
:100B2000E9FFEA6EEFCFC9F0C9AF02D0C9B502D074
:100B3000000E01D0010E016EC0EF05F004C5C7F034
:100B400067D7015229E005010151010A000105E0C2
:100B5000020A09E0030A0DE01DD004C5C7F081D7E1
:100B6000CA6B6EDD19D004C5C7F09CD7CA6B68DDAF
:100B700013D00501406B416B04C5C7F00001B4D729
:100B8000015204E0010E0501406F0001020ECA6F20
:100B900057DD02D058DD00D035EF06F0FE0E246E92
:100BA000000C0501042D01D002D0045348E101518D
:100BB00000010BE0010A0DE0210A1CE0010A1FE020
:100BC000030A2EE0010A31E037D0010E836FE6DF21
:100BD00035D0050EEA6E400EE96EE26A360EE16E21
:100BE000080E016EE6CFEEFF012EFCD706C5CAF057
:100BF00027DD24D0020E836F1A84D0DF1FD0050EAC
:100C0000EA6E400EE96EE26A2D0EE16E070E016E8D
:100C1000E6CFEEFF012EFCD7070ECA6F11DD0ED016
:100C200002C582F0CA6B0CDD09D002C535F003C5E0
:100C300034F0CA6B05DD02D006DD00D005010001ED
:100C400035EF06F01D6A050100517F0B000107E03A
:100C5000010A06E0030A05E0230A04E004D03CD6BA
:100C60008CD66CD79ED7EFDC00D01CEF08F0BC51BF
:100C7000080DF3CF01F0040E01C0E9FFEA6EEFCFDB
:100C8000BEF0BD51020806E1BEAD02D0BD6B02D080
:100C9000010EBD6FBD51030812E1840EBE6FBC5141
:100CA000080DF350040F016E040E036ED8B0032A32
:100CB00001C0E9FF03C0EAFF840EEF6E09D0BD2D2D
:100CC00003D0C80EBE6F04D0BD5302E1880EBE6FC4
:100CD000036A010E026EBC51006E05E0D890023628
:100CE0000336002EFBD70250FF0A006EFF0E031AD8
:100CF0000050211603502216D890BC35036AF2CF5B
:100D0000C1F0F29E96EC00F00900F5CF03F0C1BFF0
:100D1000F28EBF6F03C0C0F0BC51080DF350010F3D
:100D2000016E040E036ED8B0032A01C0E9FF03C0B0
:100D3000EAFFBFC0EFFFC0B1BE81C0B3BE83BC51EC
:100D4000080DF3CF01F0040E01C0E9FFEA6EBEC04A
:100D5000EFFF000CD351080DF350040F016E040E89
:100D6000036ED8B0032A01C0E9FF03C0EAFFEFCF4A
:100D7000D7F0D7BF5BD0D351080DF350050F016EEC
:100D8000040E036ED8B0032A01C0E9FF03C0EAFFD6
:100D9000D4C0EFFFD651020816E1D351080DF3502D
:100DA000040F016E040E036ED8B0032A01C0E9FFE0
:100DB00003C0EAFFEFCFD7F0D7AD02D0D66B02D099
:100DC000010ED66F13D0D651040810E1D351080D8F
:100DD000F3CF01F0040E01C0E9FFEA6EEFCFD7F0C8
:100DE000D7AD03D0010ED66F01D0D66BD62D03D070
:100DF000C80ED76F04D0D65302E1880ED76FD5B195
:100E0000D781D5B3D783D351080DF350040F016EAA
:100E1000040E036ED8B0032A01C0E9FF03C0EAFF45
:100E2000D7C0EFFF010E016E03D000D0000E016E9F
:100E3000000C8351010A03E0030A12E022D0EA6A9F
:100E4000360EE96E050EE26EE16A080E016EE6CF1F
:100E5000EEFF012EFCD7CA6B20EC03F0836B15D09C
:100E6000EA6A2D0EE96E050EE26EE16A070E016E6A
:100E7000E6CFEEFF012EFCD7836BCA6B20EC03F0AC
:100E800004D0836BEDEC02F000D067EF07F0C8519F
:100E9000080DF350010F016E040E036ED8B0032A43
:100EA00001C0E9FF03C0EAFF036AEFCF01F003C00E
:100EB00002F060EF07F07F81816B020EC86FE7D709
:100EC00001C080F06CEF07F0C75302E1B2D714D035
:100ED000C751020802E1EFD70FD0036A010E026E7C
:100EE000C751006E05E0D89002360336002EFBD7BE
:100EF0000250211203502212000CC8C06EFFC853CA
:100F000003E0040E236E02D0020E236E8DEF07F075
:100F10001E6A1D6A28C0C8F0F0D706EF08F0C85155
:100F2000080DF350040F016E040E036ED8B0032AAF
:100F300001C0E9FF03C0EAFFEFCFD0F0D0BF3FD040
:100F4000C851080DF350060F016E040E036ED8B0A1
:100F5000032A01C0E9FF03C0EAFFECCF03F0ED5222
:100F6000EFCFD1F003C0D2F0CF6BCE6BCF51CC5DC1
:100F70001AE303E1CB51CE5D16E2C9C0E9FFCAC056
:100F8000EAFFEFCFD5F0D2C0EAFFD1C0E9FFD5C06C
:100F9000EFFFD12BD8B4D22BC92BD8B4CA2BCE2B70
:100FA000D8B4CF2BE3D7C8C0D3F0CCC0D5F0CBC0DA
:100FB000D4F0CDC0D6F0CEDE015003D000D0000E6C
:100FC000016EF1EF07F07E530DE01A92020EC86F2A
:100FD000CA6B3E0EC96FCC6B7EC0CBF0020ECD6FDC
:100FE0009ED77E6BF7EF07F07E5302E0ECD701D07F
:100FF0001A820BEF08F0C7530AE11D2C03D026EC30
:1010000003F004D01D50020801E182D704D0C7517B
:10101000020801E1E9D7000C6C30C66FC633C63355
:101020001F0EC6176C523BE1040100513C0B340803
:101030001BE1046B000106D6243C05D0BC6B030EFB
:10104000BD6F15DE0ED0BC6B020EBD6F10DE2450DE
:10105000FE0807E0D36BD56B24C0D4F0040ED66F26
:1010600079DE6D9819D0040100513C0B040815E19C
:101070000001C76B29DFBC6B020EBD6FF8DD245089
:10108000FE080AE0243C01D007D0D36BD56B24C006
:10109000D4F0010ED66F5EDE040120D000016C504A
:1010A000040812E1FF0E246EC76BA5DF243C01D0BB
:1010B00008D0D36BD56B24C0D4F0020ED66F4ADEB5
:1010C00002D0EDEC02F009D06CB404D0C6C0C7F079
:1010D000FBDE03D0C6C0C7F08EDF04010001A2EF23
:1010E00008F0235201E12FD068522DE068A404D00B
:1010F00069A402D0A8EF02F06DA201D024D068A2AA
:1011000004D069A202D0ADEF02F068A004D069A0BB
:1011100002D0FCEF02F068A804D069A802D011EF59
:1011200003F068AC04D069AC02D016EF03F068AAF3
:1011300004D069AA02D019EF03F068A604D069A60A
:1011400002D06AD76896A19A2CEF00F0070EB46E11
:101150009250060E006E002EFED70000B450A19CE7
:10116000C29034EF0AF0EA6ABD0EE96EEF500DE06E
:10117000020E016E006A002EFED7012EFBD7970EDD
:10118000006E002EFED7EF2EF3D7000CC439F00B03
:10119000006E0F0E83140010836E0000838000D059
:1011A00000D08390000CF00E956E83840000838045
:1011B000000083380F0BC46F83900000838000D041
:1011C00083380F0BC36F8390000E956EC439006E89
:1011D000F00E00160050C311016EF1EF08F083927B
:1011E000E2D701C0C3F001BEFBD7C1A18392C1B158
:1011F00083820000839400008390C239C36F0F0E76
:10120000C317C3C0C4F0C2DFC2510F0BC36FC46F9A
:10121000BDDF000C000E956E8392839483900F0EB9
:10122000BD6FA1DF010EBB6FBB51030808E3030EC6
:10123000C46FACDF050EBD6F96DFBB2BF5D7020E7A
:10124000C46FA4DFBB6BBB5103080FE3036ABB5140
:10125000F2CFBCF0F29E4FEC00F0BCBFF28EBD6F3F
:10126000C16BC26FBCDFBB2BEED735EF0AF06D6AE6
:10127000696A080E6F6E94503009946E236A186A7A
:10128000F2BE188EF29EC3EC02F018BEF28E226AF5
:10129000216A6EEF09F0186AF2BE188EF29EC3EC56
:1012A00002F018BEF28E6D6A140E6F6E696A6D865A
:1012B000010E236E5FEF09F06DB601D0ECD7232C41
:1012C0000BD06DBA09D0686A696AA08AC00EF212A2
:1012D000110E696E020E236E000CC9D7EDDF23508C
:1012E0000208FCE138EF0AF07FB101D0FDD781514F
:1012F000812B036A880FE96E050E0320EA6EEFCF9B
:10130000BBF08051815D0BE37F91186AF2BE188EAD
:10131000F29E020EBC6FBD6FAADC18BEF28EBBC07F
:1013200001F049EF0AF0BE2D01D003D0400EBF6F8F
:1013300001D0BF6B010EBD5DBF27BF518009C06FDB
:10134000C16BC26F4CDFC5EF09F0BC510C0A05E060
:10135000060A0BE0020A0EE012D0C16B010EC26F4A
:101360003EDF020EBD6FFFDE10D0010EBD6F020E1C
:10137000BE6FD9D7C16B100EC26F31DF06D0010E20
:10138000C16FBCC0C2F02BDF00D0000CF86AD09E49
:101390000D8EEA6AE96AC150C00B0F09C16E070ED3
:1013A000B46E196A1A901B6A1C6A236A256A040EB5
:1013B000266E0C0E276E2A6A7E6B836B470E846F37
:1013C000750E856F650E866F6C0E876F620E886F67
:1013D000650E896F720E8A6F740E8B6F200E8C6F84
:1013E000430E8D6F6F0E8E6F8F6F6C0E906F200E91
:1013F000916F460E926F410E936F430E946F450EA0
:10140000956F420E966F4F0E976F986F4B0E996FB8
:10141000200E9A6F310E9B6F330E9C6F2F0E9D6FB7
:10142000300E9E6F350E9F6F2F0EA06F320EA16F84
:10143000300EA26F310EA36F320EA46F200EA56F77
:10144000470EA66F750EA76F650EA86F6C0EA96F7D
:10145000620EAA6F650EAB6F720EAC6F740EAD6F3D
:10146000AE6BB76B1A9672D6D5D6B1EC02F035D703
:1014700094908B8094928B921AB47ED11DDF1E5271
:10148000D8B4A7D094908B9094928B827FA1A1D056
:101490002BD7036A01C0B9F003C0BAF0B7511008E6
:1014A0000AE1BB6BBB519AEC02F0000904E0BB2BD4
:1014B000BC6F4BDFF7D7B951080813E1BA5311E1FC
:1014C000B75302E0010EB75F036AB751840FE96EAC
:1014D000000E0320EA6E200EEF6E080EBC6F35DFA3
:1014E0001BD0B9510D0802E1BA5316E0B9510C08EE
:1014F00002E1BA5311E0B9C0BCF027DF036AB7516B
:10150000840FE96E000E0320EA6EB9C0EFFFB751F9
:10151000280802E3010EB727B9C000F0BA51036EE4
:1015200003E1310E005C29E0035003E1320E005C60
:1015300027E0035003E1330E005C25E0035003E194
:10154000340E005C23E0035003E1350E005C21E023
:10155000035003E1360E005C1FE0035003E1370E39
:10156000005C1DE0035003E10D0E005C1BE0035026
:1015700003E10C0E005C18E02CD093908A7029D007
:1015800093928A7226D093948A7423D093968A7603
:1015900020D093988A781DD0939A8A7A1AD0939CF7
:1015A0008A7C17D01A7615D0B26BB76B0C0EBC6F55
:1015B000CCDEAF6BAF5129080BE3036AAF51840F48
:1015C000E96E000E0320EA6E200EEF6EAF2BF2D70D
:1015D00000D0B06BB0510708D8A0B8D0B2C0AFF0FF
:1015E000080EB225AF5DD8B093D0036AAF51840F17
:1015F000E96E000E0320EA6EEF503F081FE3036A16
:10160000AF51840FE96E000E0320EA6E200EEF5CEE
:10161000070DF350BE6BBD6F036AB051BD25016E5F
:10162000BE5103220150F2CFBFF0F29E23EC01F035
:10163000BFBFF28E016EB66FB61F50D0036AAF51B6
:10164000840FE96E000E0320EA6EEF505F081FE37F
:10165000036AAF51840FE96E000E0320EA6E400E5C
:10166000EF5C070DF350BE6BBD6F036AB051BD2533
:10167000016EBE5103220150F2CFBFF0F29EA0ECEA
:1016800001F0BFBFF28E016EB66FB61F27D0036A9E
:10169000AF51840FE96E000E0320EA6EEF507E0812
:1016A0001DE3036AAF51840FE96E000E0320EA6E5A
:1016B000600EEF5C070DF350BE6BBD6F036AB05157
:1016C000BD25016EBE5103220150F2CFBFF0F29E44
:1016D0001DEC02F0BFBFF28EB66FB61FB051070807
:1016E000D8B4B66BB16BB151070810E3D890B637D8
:1016F00002E2899201D089829292B151010804E2FA
:101700009290898092908990B12BEDD7AF2B68D7BA
:10171000929289921AA60AD0B16BB351B15D06E2DA
:101720009290898092908990B12BF7D79294898476
:10173000050EBD6F18DD92948994010EB527969021
:1017400096929694B5C08DFFB02B44D7010EB42766
:10175000B451050803E1B46B010EB327B351060879
:1017600005E1B36B1AA602D0010EB227B2512208CE
:0A177000D8B4B26B83D680D6030014
:020000040030CA
:0E000000240E3E1E008181000FC00FE00F4055
:00000001FF
;PIC18F4550
