:020000040000FA
:04000000CFEF0BF043
:08000800056ED8CF06F0E0CF31
:1000100007F00001E9CF0DF0EACF08F0E1CF09F0D9
:10002000E2CF0AF0D9CF0BF0DACF0CF0F3CF14F017
:10003000F4CF15F0FACF16F000C00FF001C010F0A9
:1000400002C011F003C012F004C013F0A0AA2CEFFC
:1000500000F0A1BA92EF08F00FC000F010C001F05C
:1000600011C002F012C003F013C004F00E8E0DC0D8
:10007000E9FF08C0EAFF09C0E1FF0AC0E2FF0BC0C8
:10008000D9FF0CC0DAFF14C0F3FF15C0F4FF16C08F
:10009000FAFF055007C0E0FF06C0D8FF1000F2CFFE
:1000A0000EF0F29EF76AB80FF66E000EF722090006
:1000B000F5500EBEF28E1200280C0106F76ACC0F26
:1000C000F66E000EF7220900F5501200040301003D
:1000D000000000000000000000000000F76AEC0FC4
:1000E000F66E000EF7220900F55012000400010020
:1000F000000000000000000000000000F76A0C0F84
:10010000F66E010EF7220900F550120040000800BB
:10011000400000000000000000000000000000009F
:100120000000000000000000000000000DAE03D041
:10013000F2CF0EF0F29EF76A4E0FF66E010EF72226
:100140000900F5500DAE02D00EBEF28E1200400036
:10015000000040000000000000000000000000005F
:100160000000000000000000000000000000F76A2E
:100170007E0FF66E010EF7220900F55012000902FB
:100180004300020100C03209040000010202010024
:1001900005240010010424020205240600010524A0
:1001A000010001070581030800FA09040100020AA1
:1001B000000000070502024000FA07058202400025
:1001C000FA00F76AD20FF66E010EF7220900F55019
:1001D00012000200F76AE40FF66E010EF722090022
:1001E000F5501200120110010200004061043300BA
:1001F000000101020001F76A060FF66E020EF722F7
:100200000900F550120004030904080343004300E9
:1002100053001E03430043005300200052005300CC
:100220003200330032002000440065006D006F0092
:10023000F2CF0EF0F29EF76A4A0FF66E020EF72228
:100240000900F5500EBEF28E1200FFFFFFFFFFFF08
:10025000FFFBFBFBFBFBFFFBF5F5F5FFFFFFFFF5EE
:10026000F5E0F5E0F5F5FBF0EBF1FAE1FBE3EAE5AB
:10027000FBF4EAF8F7EBEBF7EAEDF2F9F9FDFBFF37
:10028000FFFFFDFBF7F7F7FBFDF7FBFDFDFDFBF7C0
:10029000FBEAF1FBF1EAFBFFFBFBE0FBFBFFFFFFEF
:1002A000FFF3F3FBF7FFFFFFF1FFFFFFFFFFFFFF90
:1002B000FFF3F3FFFEFDFBF7EFFFF1EEECEAE6EEF6
:1002C000F1FBF3FBFBFBFBF1F1EEFEF1EFEFE0F1F5
:1002D000EEFEF9FEEEF1FDF9F5EDE0FDFDE0EFE1FA
:1002E000FEFEFEE1F9F7EFE1EEEEF1E0FEFDFBF7D9
:1002F000F7F7F1EEEEF1EEEEF1F1EEEEF0FEFDF3DA
:10030000FFF3F3FFF3F3FFF3FBF3F3FFF3F3FDFB73
:10031000F7EFF7FBFDFFFFF1FFF1FFFFF7FBFDFE3E
:10032000FDFBF7F1EEFEFDFBFFFBF2CF0EF0F29EC0
:10033000F76A440FF66E030EF7220900F5500EBE61
:10034000F28E1200F1EEFEF2EAEAF1FBF5EEEEE0DB
:10035000EEEEE1F6F6F1F6F6E1F1EEEFEFEFEEF1AB
:10036000E1F6F6F6F6F6E1E0EFEFE3EFEFE0E0EFCF
:10037000EFE3EFEFEFF1EEEFE8EEEEF1EEEEEEE0B1
:10038000EEEEEEF1FBFBFBFBFBF1F8FDFDFDFDFDF1
:10039000F3EEEDEBE7EBEDEEEFEFEFEFEFEFE0EE8F
:1003A000E4EAEAEEEEEEEEE6EAECEEEEEEF1EEEE8A
:1003B000EEEEEEF1E1EEEEE1EFEFEFF1EEEEEEEA72
:1003C000EDF2E1EEEEE1EBEDEEF1EEEFF1FEEEF14E
:1003D000E0FBFBFBFBFBFBEEEEEEEEEEEEF1EEEEFA
:1003E000EEF5F5FBFBEEEEEEEAEAE4EEEEEEF5FB03
:1003F000F5EEEEEEEEF5FBFBFBFBE0FEFDFBF7EFB3
:10040000E0F1F7F7F7F7F7F1FFEFF7FBFDFEFFF18C
:10041000FDFDFDFDFDF1FBF5EEFFFFFFFFFFFFFF23
:10042000FFFFFFE0F2CF0EF0F29EF76A3E0FF66E8E
:10043000040EF7220900F5500EBEF28E1200F3F3FF
:10044000F7FBFFFFFFFFFFF1FEF0EEF1EFEFE9E654
:10045000EEE6E9FFFFF8F7F7F7F8FEFEF2ECEEEC58
:10046000F2FFFFF1EEE0EFF1F9F6F7E1F7F7F7FF52
:10047000FFF0EEF0FEF1EFEFE9E6EEEEEEFBFFF35C
:10048000FBFBFBF1FDFFF9FDFDFDF3F7F7F6F5F3DF
:10049000F5F6F3FBFBFBFBFBF1FFFFE5EAEAEAEA1B
:1004A000FFFFE9E6EEEEEEFFFFF1EEEEEEF1FFFF0D
:1004B000E1EEE1EFEFFFFFF0EEF0FEFEFFFFE9E619
:1004C000EFEFEFFFFFF0EFF1FEE1FBFBF0FBFBFBDB
:1004D000FCFFFFEEEEEEECF2FFFFEEEEEEF5FBFFC3
:1004E000FFEEEEEAEAF4FFFFEEF5FBF5EEFFFFEEBE
:1004F000F5FBFBF3FFFFE0FDFBF7E0F9F7F7E7F7AC
:10050000F7F9FBFBFBFFFBFBFBF3FDFDFCFDFDF344
:10051000F5EAFFFFFFFFFF00000000000000F2CF40
:100520000EF0F29EF76A380FF66E050EF7220900FC
:10053000F5500EBEF28E12000A006D926994689416
:100540009DEF08F06A6A6892A6EF08F0306A2F6A99
:10055000250E2E6E800E2D6E316A326A080E336EB5
:10056000826B1A94356A346A7E6B7F911A82000C12
:10057000F96BF95101080AE3036AF9512B0FE96E8F
:10058000000E0320EA6EEF6AF92BF3D7DFDF1E6A55
:10059000010E1F6E1D6A000C010E0101026F025157
:1005A0000F080EE3700E0225016E0F0E036ED8B019
:1005B000032A01C0E9FF03C0EAFFEF6A022BEFD76D
:1005C000226A216A0001000C400E0401016F050E31
:1005D000036F026B880E006F046B050E076F400EF1
:1005E000066F0001000C6A6A686A9F0E6B6E390E16
:1005F000696E6E6ABDDFD0DF160E706E68A602D01F
:100600006896FCD76D98E0DF030E236EACEF08F020
:10061000698468986D82B2EF08F0689CB8EF08F0C2
:1006200070A002D0D1DF7090689ABEEF08F0FDC0D4
:1006300024F0000CFF0E246E000CFB6B2A5235E0F8
:10064000FB513F0832E3205005E0020A0DE0010AA9
:1006500015E01ED0036A2950F2CFFDF0F29E87DD2F
:10066000FDBFF28EFC6F14D0036A2950F2CFFDF06B
:10067000F29EC1DDFDBFF28EFC6F0AD0036A2950E5
:10068000F2CFFDF0F29EA6DDFDBFF28EFC6F00D032
:10069000292A2A06FB51FB2B036A400FE96E050E3F
:1006A0000320EA6EFCC0EFFFC9D72A5204E1FB51D8
:1006B000400801E01D6AFBC0FDF0B9DF000C296AAB
:1006C000206A05010351010A000105E0030A08E060
:1006D000010A09E01FD0120E2A6E030E206E1CD0F4
:1006E000430E2A6E19D0020E206E036A05010251D4
:1006F000250FE96E000E0320EA6EEFCF29F0036AA2
:100700002950F2CFFAF0F29E000175DDFABFF28EA9
:100710002A6E02D08FDF0CD00501075305E12A5065
:10072000065D02E206C52AF0010E1D6E000185DF9E
:10073000C4EF04F0FA5304E1040E236E2DDFD3D08E
:10074000050E236EFD6F800EFC6F010EFB6FFB51DB
:100750000F08D8A0C8D0FE6B036AFB51F2CF02F19C
:10076000F29EBCDC010102BFF28E000A59E0040EC9
:100770000001FE6FD890FB35036AF2CF02F1F29EC2
:10078000D5DC0900F5CF03F0010102BFF28E0001B4
:10079000FF6F03C000F1FB51080DF350010F016E14
:1007A000040E036ED8B0032A01C0E9FF03C0EAFFBC
:1007B000FFC0EFFFFB51080DF350020F016E040E56
:1007C000036ED8B0032A01C0E9FF03C0EAFFFDC0F1
:1007D000ECFFED52FCC0EFFFD890FB35036AF2CF7F
:1007E00002F1F29EA3DC0900F5CF03F0010102BF84
:1007F000F28E0001FC270350FD23880E0101016FDA
:1008000000B1018100B301830001FB51080DF3CF5A
:1008100001F0040E01C0E9FFEA6E01C1EFFF010122
:10082000036A0001FB51F2CF02F1F29E47DC0101A5
:1008300002BFF28E000A34E00001FE83FB51080D76
:10084000F350060F016E040E036ED8B0032A01C0E8
:10085000E9FF03C0EAFFFDC0ECFFED52FCC0EFFF73
:10086000D890FB35036AF2CF02F1F29E47DC090013
:10087000F5CF03F0010102BFF28E0001FC27035007
:10088000FD23FB51080DF350040F016E040E036E9F
:10089000D8B0032A01C0E9FF03C0EAFF400EEF6EA3
:1008A0000001FE51060802E10E0EFE6F036AFB51C5
:1008B000F2CF02F1F29E02DC010102BFF28E0208C9
:1008C00002E00001FE89700E0001FB25016E0F0E93
:1008D000036ED8B0032A01C0E9FF03C0EAFFFEC0DF
:1008E000EFFFFB2B34D7BEEF04F0050101510001EF
:1008F0000DE0010A14E0020A1EE0060A27E0030ADE
:100900002CE00E0A2BE0010A2FE03CD01FC040F57E
:100910000501416B020E0001FD6F89DE35D0050136
:10092000022D06D0010E1F160001FD6B80DE02D0E5
:10093000000180DE29D00501022D05D01F820001B3
:10094000FD6B75DE02D0000175DE1ED0020E1D6E3D
:1009500002C528F0FD6B6BDE17D0B1D61EC040F586
:10096000010EFD6F64DE10D005010251010808E39D
:1009700002C51EF002C5FAF00001DCD6FD6B57DEA1
:10098000000102D057DE00D03FEF06F01EC0FAF0A3
:1009900005010151000105E00A0A0BE0010A2CE003
:1009A0003DD00501406B416B020E0001FD6F3FDE43
:1009B00037D0FA531FE0010EFA5D036AF2CFFCF064
:1009C000F29EE1EC00F0FCBFF28E016E0501045DC9
:1009D000D8A002D000010ED0036A04512B0FE96E9B
:1009E000000E0320EA6EEFCF40F5010E0001FD6F0F
:1009F0001EDE01D01FDE14D0FA530EE0036A05019B
:100A000004512B0FE96E000E0320EA6E02C5EFFFC2
:100A10000001FD6B0CDE01D00DDE02D00BDE00D03C
:100A20003FEF06F0FB91FABFFB81FA9FFBA111D0CB
:100A3000036AFA51F2CFFCF0F29E5EEC00F0FCBFCC
:100A4000F28E000A02E1000E01D0010E016E11D0FB
:100A500010D0036AFA51F2CFFCF0F29E6EEC00F077
:100A6000FCBFF28E000A02E1000E01D0010E016E01
:100A700000D0ABEF05F0FB91FABFFB81FA9FFBA121
:100A800010D0FA51080DF350040F016E040E036EDE
:100A9000D8B0032A01C0E9FF03C0EAFF880EEF6E59
:100AA00009D0FA51080DF3CF01F0040E01C0E9FF9F
:100AB000EA6EEF6ABAEF05F0FB91FABFFB81FA9F8D
:100AC000FBA110D0FA51080DF350040F016E040E73
:100AD000036ED8B0032A01C0E9FF03C0EAFF840E09
:100AE000EF6E0AD0FA51080DF3CF01F0040E01C0E9
:100AF000E9FFEA6E840EEF6EC0EF05F0FB91FABFDE
:100B0000FB81FA9FFBA110D0FA51080DF350040F9E
:100B1000016E040E036ED8B0032A01C0E9FF03C0C2
:100B2000EAFFEFCFFCF00AD0FA51080DF3CF01F045
:100B3000040E01C0E9FFEA6EEFCFFCF0FCAF02D07B
:100B4000FCB502D0000E01D0010E016ECAEF05F017
:100B500004C5FAF067D7015229E005010151010AE5
:100B6000000105E0020A09E0030A0DE01DD004C5FA
:100B7000FAF081D7FD6B5BDD19D004C5FAF09CD784
:100B8000FD6B55DD13D00501406B416B04C5FAF0D8
:100B90000001B4D7015204E0010E0501406F0001CD
:100BA000020EFD6F44DD02D045DD00D03FEF06F0C0
:100BB000FE0E246E000C0501042D01D002D004535A
:100BC00048E1015100010BE0010A0DE0210A1CE09F
:100BD000010A1FE0030A2EE0010A31E037D0010EBE
:100BE000836FE6DF35D0050EEA6E400EE96EE26AED
:100BF000360EE16E080E016EE6CFEEFF012EFCD739
:100C000006C5FDF014DD24D0020E836F1A84D0DFF8
:100C10001FD0050EEA6E400EE96EE26A2D0EE16EFF
:100C2000070E016EE6CFEEFF012EFCD7070EFD6F1B
:100C3000FEDC0ED002C582F0FD6BF9DC09D002C5E6
:100C400035F003C534F0FD6BF2DC02D0F3DC00D0EC
:100C5000050100013FEF06F01D6A050100517F0B01
:100C6000000107E0010A06E0030A05E0230A04E0A8
:100C700004D03BD68BD66CD79ED7DCDC00D037EFC8
:100C800008F0FA51080DF3CF01F0040E01C0E9FF9E
:100C9000EA6EEFCFFCF0FB51020806E1FCAD02D09A
:100CA000FB6B02D0010EFB6FFB51030812E1840EB7
:100CB000FC6FFA51080DF350040F016E040E036E21
:100CC000D8B0032A01C0E9FF03C0EAFF840EEF6E2B
:100CD00009D0FB2D03D0C80EFC6F04D0FB5302E1FA
:100CE000880EFC6F036A010E026EFA51006E05E079
:100CF000D89002360336002EFBD70250FF0A006E52
:100D0000FF0E031A0050211603502216D890FA3510
:100D1000036AF2CFFFF0F29E96EC00F00900F5CFE7
:100D200003F0FFBFF28EFD6F03C0FEF0FA51080D15
:100D3000F350010F016E040E036ED8B0032A01C0F8
:100D4000E9FF03C0EAFFFDC0EFFFFEB1FC81FEB387
:100D5000FC83FA51080DF3CF01F0040E01C0E9FF46
:100D6000EA6EFCC0EFFF000C01010651080DF350C4
:100D7000040F016E040E036ED8B0032A01C0E9FF10
:100D800003C0EAFFEFCF0AF10ABF5BD00651080D9E
:100D9000F350050F016E040E036ED8B0032A01C094
:100DA000E9FF03C0EAFF07C1EFFF0951020816E19E
:100DB0000651080DF350040F016E040E036ED8B0F7
:100DC000032A01C0E9FF03C0EAFFEFCF0AF10AAD31
:100DD00002D0096B02D0010E096F13D0095104082B
:100DE00010E10651080DF3CF01F0040E01C0E9FF38
:100DF000EA6EEFCF0AF10AAD03D0010E096F01D000
:100E0000096B092D03D0C80E0A6F04D0095302E103
:100E1000880E0A6F08B10A8108B30A830651080DCB
:100E2000F350040F016E040E036ED8B0032A01C004
:100E3000E9FF03C0EAFF0AC1EFFF010E016E03D014
:100E400000D0000E016E0001000C8351010A03E086
:100E5000030A12E022D0EA6A360EE96E050EE26E4F
:100E6000E16A080E016EE6CFEEFF012EFCD7FD6BA6
:100E700017EC03F0836B15D0EA6A2D0EE96E050EB0
:100E8000E26EE16A070E016EE6CFEEFF012EFCD79F
:100E9000836BFD6B17EC03F004D0836BE4EC02F082
:100EA00000D073EF07F0FB51080DF350010F016EF6
:100EB000040E036ED8B0032A01C0E9FF03C0EAFFA5
:100EC000036AEFCF01F003C002F06CEF07F07F81FF
:100ED000816B020EFB6FE7D701C080F078EF07F05F
:100EE000FA5302E1B2D714D0FA51020802E1EFD767
:100EF0000FD0036A010E026EFA51006E05E0D89021
:100F000002360336002EFBD7025021120350221264
:100F1000000CFBC06EFFFB5303E0040E236E02D0F7
:100F2000020E236E99EF07F01E6A1D6A28C0FBF0BF
:100F3000F0D721EF08F0FB51080DF350040F016EBC
:100F4000040E036ED8B0032A01C0E9FF03C0EAFF14
:100F5000EFCF03F1010103BF4CD00001FB51080D9D
:100F6000F350060F016E040E036ED8B0032A01C0C1
:100F7000E9FF03C0EAFFECCF03F0ED52EFCF04F13D
:100F8000010103C005F1026B016B02510001FF5D1D
:100F900023E308E1FE510101015DD8A002D0000168
:100FA0001BD00001FCC0E9FFFDC0EAFFEFCF08F154
:100FB000010105C1EAFF04C1E9FF08C1EFFF042BED
:100FC000D8B4052B0001FC2BD8B4FD2B0101012B5B
:100FD000D8B4022BDAD70001FBC006F1FFC008F13C
:100FE000FEC007F100C109F1BFDE015004D000D0FE
:100FF0000101000E016E0001000C7E530FE01A92F9
:10100000020EFB6FFD6B3E0EFC6FFF6B7EC0FEF0B1
:10101000020E0101006F00018EDF7E6B000C7E531B
:1010200002E0EBDF01D01A8226EF08F0FA530AE162
:101030001D2C03D01DEC03F004D01D50020801E16B
:1010400073D704D0FA51020801E1E9D7000C6C30E3
:10105000F96FF933F9331F0EF9176C523FE10401B0
:1010600000513C0B34081DE1046B0001F5D5243C14
:1010700005D0FA6B030EFB6F04DE10D0FA6B020E84
:10108000FB6FFFDD2450FE0809E00101066B086BD1
:1010900024C007F1040E096F000166DE6D981BD0B5
:1010A000040100513C0B040817E10001FA6B18DF42
:1010B000FA6B020EFB6FE5DD2450FE080CE0243CC9
:1010C00001D009D00101066B086B24C007F1010EA5
:1010D000096F000149DE040122D000016C500408B0
:1010E00014E1FF0E246EFA6BA1DF243C01D00AD07C
:1010F0000101066B086B24C007F1020E096F0001A5
:1011000033DE02D0E4EC02F009D06CB404D0F9C0B4
:10111000FAF0E6DE03D0F9C0FAF088DF040100013E
:10112000C3EF08F0235201E12FD068522DE068A4EC
:1011300004D069A402D09DEF02F06DA201D024D0AA
:1011400068A204D069A202D0A2EF02F068A004D085
:1011500069A002D0F3EF02F068A804D069A802D019
:1011600008EF03F068AC04D069AC02D00DEF03F0D7
:1011700068AA04D069AA02D010EF03F068A604D0D0
:1011800069A602D064D76896A19A2CEF00F0EA6AAB
:10119000D90EE96EEF500DE0060E016E006A002ECA
:1011A000FED7012EFBD77B0E006E002EFED7EF2E52
:1011B000F3D7000CE039F00B006E0F0E8314001013
:1011C000836E00008380030E006E002EFED7839096
:1011D000000CF00E956E838400008380000083383D
:1011E0000F0BE06F83900000838000D000D00000E0
:1011F00083380F0BDF6F8390000E956EE039006E21
:10120000F00E00160050DF11016E09EF09F0839215
:10121000E0D701C0DFF001BEFBD7DDA18392DDB1D5
:1012200083820000839400008390DE39DF6F0F0E0D
:10123000DF17DFC0E0F0BEDFDE510F0BDF6FE06FC6
:10124000B9DF000C000E956E8392839483900F0E8D
:10125000D96F9DDF010ED76FD751030808E3030E46
:10126000E06FA8DF050ED96F92DFD72BF5D7020EFE
:10127000E06FA0DFD76BD75103080FE3036AD751A4
:10128000F2CFD8F0F29E4FEC00F0D8BFF28ED96FBB
:10129000DD6BDE6FBCDFD72BEED73BEF0CF06D6A5A
:1012A000696A080E6F6E94503009946E236A186A4A
:1012B000F2BE188EF29EB8EC02F018BEF28E226AD0
:1012C000216A86EF09F0186AF2BE188EF29EB8EC19
:1012D00002F018BEF28E6D6A140E6F6E696A6D862A
:1012E000010E236E77EF09F06DB601D0ECD7232CF9
:1012F0000BD06DBA09D0686A696AA08AC00EF21272
:10130000110E696E020E236E000CC9D7EDDF23505B
:101310000208FCE13EEF0CF0EF6BF06B010EF16F99
:10132000DA6AD96AF46BE70EF36FEA6AEB0EE96EDC
:10133000F4C0E2FFF3C0E1FFF1C0F2F0D890E55055
:10134000EE02F350EF23F450F023F22FF7D7EFC063
:10135000DEFFF0C0EFF0F06BD8B0F02BF32BD8B479
:10136000F42BF12BF1510508E0E139EF0AF0EE51D1
:10137000F219800BF86FEEAF0BD0EB1FEC1FED1FD7
:10138000EE1FEB2BD8B4EC2BD8B4ED2BD8B4EE2B4E
:10139000F2AF0BD0EF1FF01FF11FF21FEF2BD8B4ED
:1013A000F02BD8B4F12BD8B4F22B006A016A026A90
:1013B000036AF36BF46BF56BF66BF251F111F011FC
:1013C000EF112CE0200EF76FD890EB37EC37ED37AC
:1013D000EE37F337F437F537F637F251F65D08E1BB
:1013E000F151F55D05E1F051F45D02E1EF51F35D7E
:1013F0000FE3EF51F35FF051D8A0F03DF45FF151EE
:10140000D8A0F13DF55FF251D8A0F23DF65FD8804B
:101410000036013602360336F72FD6D7F8AF0BD099
:10142000001E011E021E031E002AD8B4012AD8B4D1
:10143000022AD8B4032AEA6AF30EE96E000C010E00
:10144000DF6FE06BE16BE26BE46BE56BDBBF01D060
:1014500018D0010EE46FDBC0EAF0DAC0E9F0D9C0C1
:10146000E8F0D8C0E7F0FF0EEE6FED6FEC6FEB6FBA
:1014700053D703C0DBF002C0DAF001C0D9F000C0DE
:10148000D8F0DF5306E1E05304E1E15302E1E25317
:1014900073E0DBC0EEF0DAC0EDF0D9C0ECF0D8C0FC
:1014A000EBF0F26BF16BF06BDCC0EFF060DF03C0D0
:1014B000E2F002C0E1F001C0E0F000C0DFF0036A3A
:1014C000E551DD25016EDE51032201C0E7F003C0C6
:1014D000E8F0EACFEAF0E9CFE9F0DBC0EEF0DAC0FD
:1014E000EDF0D9C0ECF0D8C0EBF0F26BF16BF06B23
:1014F000DCC0EFF03CDFEFCF00F0ECCF01F0ECCF41
:1015000002F0ECCF03F0EAC0EAFFE9C0E9FF03C054
:10151000EEF002C0EDF001C0ECF000C0EBF0300ED8
:101520000024006E000E0120000E0220000E032099
:10153000E8C0EAFFE7C0E9FF00C0EFFF036AE5513A
:10154000DD25E96EDE510320EA6EEF5039080AE22C
:10155000036AE551DD25E96EDE510320EA6E070ED0
:10156000EF24EF6EE52BE2C0DBF0E1C0DAF0E0C083
:10157000D9F0DFC0D8F085D7E42D0AD0036AE55151
:10158000DD25E96EDE510320EA6E2D0EEF6EE52BB0
:10159000E36BD890E531E35D2FE2036AE351DD258B
:1015A000E96EDE510320EA6EEFCFE6F0036AE35105
:1015B000DD25016EDE51032203C0E8F0E351E55D55
:1015C000FF0F036ADD25E96EDE510320EA6EEFCFDF
:1015D000EBF0E8C0EAFF01C0E9FFEBC0EFFFE35129
:1015E000E55DFF0F036ADD25E96EDE510320EA6E3B
:1015F000E6C0EFFFE32BCDD7036AE551DD25E96EA9
:10160000DE510320EA6EEF6ADDC001F0DEC002F0B9
:1016100047EF0BF0DB91F2BEDB81F29E7E513F087B
:1016200002E23F0E7E6F7E517E2B036A3E0FE96E13
:10163000000E0320EA6EDAC0EFFFF29EDBB1F28EFD
:101640001AA207D0186AF2BE188EF29ED6DC18BE17
:10165000F28E3BEF0BF07E513F080AE21AA207D050
:10166000186AF2BE188EF29EC8DC18BEF28EF3D74E
:10167000D9C0DAF0CFD7000CDB6BDA6BD96BD7C0EF
:10168000D8F00A0EDC6FDE6BD20EDD6FD8D67E513D
:101690003F080BE3D96BDFDFD2C0D9F0DCDFD3C06A
:1016A000D9F0D9DFD4C0D9F0D6DF000C7E513F0885
:1016B00003E381CFD9F0CFDF000C7E513F0805E373
:1016C000D8908B31D76FD96FC6DF000C7E513F08A1
:1016D00012E3CE6BCE51D75D0EE3036ACE518C0F71
:1016E000E96E000E0320EA6EEFCFD8F0D8C0D9F033
:1016F000B2DFCE2BEFD7000C7FB101D0FDD78151E7
:10170000812B036A880FE96E050E0320EA6EEFCF86
:10171000D7F08051815D0CE37F91186AF2BE188E7C
:10172000F29E020EFA6FFB6F41EC06F018BEF28ECD
:10173000D7C001F061EF0CF0DA2D01D003D0400EDC
:10174000DB6F01D0DB6B010ED95DDB27DB5180093C
:10175000DC6FDD6BDE6F5BDD000CD8510C0A05E041
:10176000060A0BE0020A0FE013D0DD6B010EDE6FFC
:101770004EDD020ED96F0BDD11D0010ED96F020EB6
:10178000DA6FDADF0BD0DD6B100EDE6F40DD06D0D6
:10179000010EDD6FD8C0DEF03ADD00D0000CF86A33
:1017A000D09E0D8EEA6AE96AC150C00B0F09C16E66
:1017B000070EB46E196A1A901B6A1C6A236A256A9E
:1017C000040E266E0C0E276E2A6A7E6B836B846B6A
:1017D000856B200E8C6F8D6F8E6F8F6F906F916FFA
:1017E000926F936F946F956F966F976F986F996FD5
:1017F0009A6F9B6F9C6F9D6F9E6F9F6FA06FA16F85
:10180000A26FA36FA46FA56FA66FA76FA86FA96F34
:10181000AA6FAB6FAC6FAD6FAE6FAF6FB06FB16FE4
:10182000B26FB36FB46FB56FB66FB76FB86FB96F94
:10183000BA6FBB6FBC6FBD6FBE6FBF6FC06FC16F44
:10184000C26FC36FC46BCD6B300ED26FD36FD46FCA
:10185000D56FD66B1A96C080C082C084C08EC280FD
:10186000C150C00B0E09C16E000E016EC250C30BF9
:101870000110C26EE7D4A6EC02F047D594908B809D
:1018800094928B921AB403D2C282C2B2FED7C3CF53
:101890008AF08A518B5D0AE08AC08BF0CDC0D7F008
:1018A000EBDE04DF0ADFCDC0D7F010DF1DDD1E52F6
:1018B000D8B4DCD094908B9094928B827FA1D6D0B8
:1018C0001BD7036A01C0D0F003C0D1F0D0C000F034
:1018D000D151036E03E1830E005C42E0035003E14B
:1018E000840E005C40E0035003E1850E005C3EE0A6
:1018F000035003E1860E005C3CE0035003E1870ED9
:10190000005C3AE0035003E1880E005C38E00350CD
:1019100003E1890E005C36E0035003E18A0E005CAF
:1019200034E0035003E1080E005C32E0035003E1B1
:101930000B0E005C4CE0035003E10D0E005C4AE02E
:10194000035003E10C0E005C47E0035003E1020E7C
:10195000005C5AE0035003E1030E005C58E05FD0E6
:1019600093908A707BD093928A7278D093948A7481
:1019700075D093968A7672D093988A786FD0939A1E
:101980008A7A6CD0939C8A7C69D0939E8A7E66D03A
:10199000CD531CE0010ECD5FCD510F0805E1110EB6
:1019A000D96F010EDA6FC8DE036ACD518C0FE96E74
:1019B000000E0320EA6E200EEF6E080ED86FCDDE0B
:1019C000200ED86FCADE080ED86FC7DE47D0CD6BA9
:1019D000C86B44D01A7642D00C0ED86FBEDECE6BE8
:1019E000030ECD25080FCE5D01E00BE2036ACE5158
:1019F0008C0FE96E000E0320EA6E200EEF6ECE2BE8
:101A0000EFD7C86BCD6B2AD0C86BC96B27D0CD512F
:101A1000080803E2080ECD5DC86FC96B1FD0D0C0A7
:101A2000D8F09BDE036ACD518C0FE96E000E0320C7
:101A3000EA6ED0C0EFFFCD51280802E3010ECD279A
:101A4000CD5110080AE1D76BD7518FEC02F0000995
:101A500004E0D72BD86F81DEF7D700D0CDC0D7F008
:101A60000BDE24DE2ADECDC0D7F030DEC66BC651D9
:101A70000708D8A0B9D0C8C0C5F0080EC825C55DF4
:101A8000D8B093D0036AC5518C0FE96E000E0320C5
:101A9000EA6EEF503F081FE3036AC5518C0FE96EF1
:101AA000000E0320EA6E200EEF5C070DF350DA6B98
:101AB000D96F036AC651D925016EDA51032201504C
:101AC000F2CFDBF0F29E18EC01F0DBBFF28E016E7C
:101AD000CC6FCC1F50D0036AC5518C0FE96E000E3D
:101AE0000320EA6EEF505F081FE3036AC5518C0FB5
:101AF000E96E000E0320EA6E400EEF5C070DF35016
:101B0000DA6BD96F036AC651D925016EDA51032207
:101B10000150F2CFDBF0F29E95EC01F0DBBFF28ECC
:101B2000016ECC6FCC1F27D0036AC5518C0FE96EB4
:101B3000000E0320EA6EEF507E081DE3036AC551D4
:101B40008C0FE96E000E0320EA6E600EEF5C070D4D
:101B5000F350DA6BD96F036AC651D925016EDA5199
:101B600003220150F2CFDBF0F29E12EC02F0DBBF59
:101B7000F28ECC6FCC1FC6510708D8B4CC6BC76BA4
:101B8000C751070810E3D890CC3702E2899401D0FE
:101B900089849294C751010804E2929289829292B8
:101BA0008992C72BEDD7C52B68D7929489941AA632
:101BB0000AD0C76BC951C75D06E2929289829292A0
:101BC0008992C72BF7D792968986050ED96FC7ECF5
:101BD00008F092968996010ECB279690969296944D
:101BE000CBC08DFFC62B43D7010ECA27CA510508AB
:101BF00003E1CA6B010EC927C951060846E1C96B4A
:101C00001AA643D0010EC827036ACD518C0FE96E86
:101C1000000E0320EA6E200EEF6E010ECD25036A42
:101C20008C0FE96E000E0320EA6E200EEF6E020E9E
:101C3000CD25036A8C0FE96E000E0320EA6E200E9C
:101C4000EF6ECE6BCE5107081BE3030ECD25CE25DC
:101C5000036A8C0F016E000E032203C0DAF0036AE0
:101C6000CE518C0FE96E000E0320EA6EEFCFDBF051
:101C7000DAC0EAFF01C0E9FFDBC0EFFFCE2BE2D7FD
:101C8000030ECD25C85DD8B0C86BFED5FBD50300CB
:020000040030CA
:0E000000240E3E1E008181000FC00FE00F4055
:00000001FF
;PIC18F4550
